:02000002B0004C
:1040000000400B00705B0B00000006000C00050276
:084010000401E40C00000000B3
:0440180028580B0019
:10401C0009480A49884208B505D0094A824202D0AB
:10402C00121A01F020FB0748074A0021121A01F06E
:10403C0028FB014808BD00BF40E60320D85A0B00FE
:10404C00B0E60320B0E60320EDE7032070B5074E81
:10405C00074C00F087FCA41BA4080025AC4200D13F
:10406C0070BD56F8043B98470135F7E7885A0B00AA
:10407C00AC5A0B0000F026B808B500F047F8BDE8C4
:10408C00084000F027BC00F061BA00F05FBA00F005
:10409C0065BA0078B0FA80F04009704701230370CC
:1040AC007047000013B5064B1B788DF800300022CA
:1040BC003C23044600F0DAFD204602B010BD00BFE0
:1040CC00B0E6032010B50B4C0121208801F004FA56
:1040DC0009490A480023022200F010FA0849094A4B
:1040EC00094800F0CCFC20880021BDE8104001F00C
:1040FC0004BA00BF40E60320B4E603203C580B0092
:10410C0059410B0048580B005F4A0B0008B51320AF
:10411C0001F00CFA014B186008BD00BFB4E6032097
:10412C0038B5046805467CB16368013B63605BB9D4
:10413C00236820469B689847A368013BA3601BB982
:10414C0023682046DB689847284638BD37B51549A3
:10415C00054600F006FB044670B1134B012118888C
:10416C0001F0CBF911496846FFF79CFF01A8FFF756
:10417C00D7FF012003B030BD0D49284600F0F1FAFD
:10418C0068B1094B2146188801F0B7F9094968460E
:10419C00FFF788FF01A8FFF7C3FF2046EAE74FF0BF
:1041AC00FF30E7E74C580B0040E603204F580B005C
:1041BC0056580B005A580B00014B00221A707047CE
:1041CC00B0E6032008B5024B1B689B68019308BD41
:1041DC006802030008B5024B1B68DB68019308BD3D
:1041EC006802030008B5024B1B685B68019308BDAD
:1041FC002C02030008B5024B1B689B68019308BD99
:10420C002C02030008B5024B1B68DB68019308BD48
:10421C002C02030008B5024B1B681B69019308BDF7
:10422C002C02030008B5024B1B681B6B019308BDE5
:10423C002C02030008B5024B1B685B68019308BD98
:10424C001802030008B5024B1B685B69019308BD9B
:10425C001802030008B5024B1B685B6C019308BD88
:10426C004802030008B5024B1B685B69019308BD4B
:10427C006402030008B5024B1B68DB68019308BDA0
:10428C003C02030008B5024B1B681B69019308BD77
:10429C003C02030008B5024B1B685B69019308BD27
:1042AC003C02030008B5024B1B689B69019308BDD7
:1042BC003C02030008B5024B1B68DB69019308BD87
:1042CC003C02030008B5024B1B681B6A019308BD36
:1042DC003C02030008B5024B1B689B6A019308BDA6
:1042EC003C02030008B5024B1B681B6C019308BD14
:1042FC003C02030008B5024B1B681B6A019308BD06
:10430C002802030008B5024B1B685B6A019308BDC9
:10431C002802030008B5024B1B689B6A019308BD79
:10432C002802030008B5024B1B68DB6A019308BD29
:10433C002802030008B5024B1B681B6B019308BDD8
:10434C002802030008B5024B1B685B6B019308BD88
:10435C002802030008B5024B1B681B6C019308BDB7
:10436C002802030008B5024B1B68DB69019308BDEA
:10437C003002030008B5024B1B681B6A019308BD91
:10438C003002030008B5024B1B681B68019308BD83
:10439C004C02030008B5024B1B681B69019308BD56
:1043AC004C02030008B5024B1B685B69019308BD06
:1043BC004C02030008B5024B1B689B69019308BDB6
:1043CC004C02030008B5024B1B68DB69019308BD66
:1043DC004C02030008B5024B1B681B6A019308BD15
:1043EC004C02030008B5024B1B685B68019308BDC7
:1043FC002002030008B5024B1B68DB6C019308BD5F
:10440C002002030008B5024B1B685B6D019308BDCD
:10441C002002030008B5034B1B68D3F888300193C6
:10442C0008BD00002002030008B5034B1B68D3F83D
:10443C009430019308BD00002002030008B5024B24
:10444C001B685B68019308BD4002030008B5024B72
:10445C001B689B68019308BD4002030008B5024B22
:10446C001B68DB68019308BD4002030008B5024BD2
:10447C001B681B69019308BD4002030008B5024B81
:10448C001B685B69019308BD4002030008B5024B31
:10449C001B689B69019308BD4002030008B5024BE1
:1044AC001B68DB69019308BD4002030008B5024B91
:1044BC001B681B6A019308BD4002030008B5024B40
:1044CC001B681B6B019308BD4002030008B5024B2F
:1044DC001B685B6B019308BD4002030008B5024BDF
:1044EC001B681B6C019308BD4002030008B5024B0E
:1044FC001B685B6C019308BD4002030008B5024BBE
:10450C001B681B68019308BD4402030008B5024BED
:10451C001B685B68019308BD4402030008B5024B9D
:10452C001B685B69019308BD4402030008B5024B8C
:10453C001B681B6A019308BD4402030008B5024BBB
:10454C001B68DB6B019308BD4402030008B5024BEA
:10455C001B681B68019308BD1C02030008B5024BC5
:10456C001B685B68019308BD1C02030008B5024B75
:10457C001B689B68019308BD1C02030008B5024B25
:10458C001B68DB6A019308BD1C02030008B5024BD3
:10459C001B681B6B019308BD1C02030008B5024B82
:1045AC001B681B6C019308BD1C02030008B5024B71
:1045BC001B685B6C019308BD1C0203000022406861
:1045CC001146FFF773BF002240681146FFF77EBF0C
:1045DC0040680022FFF772BF4068002281F00101A1
:1045EC00FFF75CBF002340681A461946FFF74EBF21
:1045FC00002340681A461946FFF740BF0022406866
:10460C001146FFF733BF002240681146FFF71EBF6B
:10461C00406800220221FFF721BF002340681A46A0
:10462C00FFF70CBF024B03225A60024A1A60704714
:10463C00B8E603206C580B0010B5044608462170F0
:10464C00FFF790FE00236360204610BD054B02224D
:10465C001A60054B054A9A600020C3E90000FFF779
:10466C00C1BE00BFCCE60320C0E603200000FFFF64
:10467C0010B504460068FFF771FF204610BD10B559
:10468C000446006808B1FFF769FF0023C4E9013351
:10469C00236010BD38B504460D4600680131FFF7A4
:1046AC0065FF10B1C4E90005012038BD10B50368E1
:1046BC00044623B143688B4201D3012010BD204630
:1046CC00FFF7E8FF0028F9D0A368002BF5D122688A
:1046DC001370F2E737B50D46114601920446FFF709
:1046EC00E5FF019A28B92046FFF7C9FF204603B021
:1046FC0030BDA2602946206800F0B5FF2268A3688F
:10470C000021D154F2E7002313B5C0E9003304466D
:10471C008360037341B10846019101F010F80199CF
:10472C0002462046FFF7D6FF204602B010BD884255
:10473C0010B5044605D00B682BB18A681946FFF7F3
:10474C00C9FF204610BDFFF79AFFFAE710B500230A
:10475C000446C0E9003383600373FFF7E8FF20468B
:10476C0010BD08B582683AB921B10878B0FA80F06A
:10477C00400900E0012008BD006809B90078F5E7A0
:10478C0000F0B6FFF2E710B58368044613B10322BC
:10479C0001469847204610BD13B50B460246D0E99A
:1047AC0000016C4684E8030093E8030082E80300F0
:1047BC0094E8030083E8030002B010BD0248002314
:1047CC000360FFF747BD00BFD0E60320F8B50646EF
:1047DC000D468F180024BD420CD0336815F8011B10
:1047EC009B6830469847031E01DB1C44F3E7002C02
:1047FC0008BF1C462046F8BD13B50446084659B1FF
:10480C00019100F09CFF23680199DB680246204669
:10481C0002B0BDE81040184702B010BD03689B6899
:10482C00184730B58BB00023012A8DF8243098BF7F
:10483C000A2209AC0D46B1FBF2F101FB125303F055
:10484C00FF03092B94BF30333733DBB2AA4204F891
:10485C00013DEFD92146FFF7CFFF0BB030BD000073
:10486C00014B024A1A607047D4E60320A0580B0093
:10487C00024B1A68024B1A60704700BF44E60320D3
:10488C00D8E60320014B00229A607047DCE6032037
:10489C00014B1860704700BF48E6032008B50B4B6E
:1048AC0043B100F021FC03681B699847002801DD27
:1048BC00AFF30080064B43B100F06AFE03681B693E
:1048CC009847002801DDAFF3008008BD0000000010
:1048DC000000000008B5FFF7E1FFFFF7B3FC014B48
:1048EC00186008BD40E703200548064A064908B58C
:1048FC00121A00F0B8FE054B054A1A6008BD00BF3D
:10490C0000F4032004F40320D45A0B0000F4032019
:10491C001E1C279A07B5002300931A466FF07701E7
:10492C00FFF782FD03B05DF804FB000007B5438878
:10493C000A2B08D0502B0BD1094B1B684BB103B081
:10494C005DF804EB1847FFF7E5FF03B05DF804FBD7
:10495C00002300931A466FF07701FFF765FDF4E72B
:10496C00F0E6032010B512480021FFF71FFE114B93
:10497C001A68114B9A42114B0CBF012200221A707B
:10498C0001D0FFF7B1FFFFF755FC044600F082FEA3
:10499C000B4B13B12046AFF3008000210848FFF702
:1049AC00CDFDBDE8104007480021FFF733BD00BF27
:1049BC009D480B0000F403201E1C279AECE60320F4
:1049CC000000000039490B0070470020704710B5FB
:1049DC0010210446FFF75BFB204610BD08B5FFF71E
:1049EC00F6FF08BD30B500224FF69C74026084803F
:1049FC008D888C800C68858004600A6030BD10B591
:104A0C0004460068FFF7AAFD204610BD38B5C468FF
:104A1C00F4B12378022B03D104F10C00FFF7EFFF64
:104A2C00656835B12846FFF7AEFE10212846FFF722
:104A3C002EFBA56835B12846FFF7A5FE10212846A8
:104A4C00FFF725FB20461421BDE83840FFF71FBBBC
:104A5C0038BD10B588B004466846FFF754FE694669
:104A6C0004A8FFF773FE04A8A047044604A8FFF7A8
:104A7C00FFFD6846FFF7FCFD204608B010BD1FB5D2
:104A8C000023CDE90201019210241A46694618460A
:104A9C00ADF80230ADF80040FFF738FD04B010BDA2
:104AAC000B6803604B68436013B15A6801325A605B
:104ABC00704737B5044668460D46FFF7F1FF009B7B
:104ACC00019A23606260002301A801930093FFF711
:104ADC0027FB35B1281DFFF723FB08212846FFF7DC
:104AEC00D6FA204603B030BD826810B50AB900F082
:104AFC00B1FDBDE81040C368184708B5006800F167
:104B0C001001FFF7F1FF08BD826810B50AB900F07B
:104B1C00A1FDBDE81040C368184708B5006800F156
:104B2C001001FFF7F1FF08BD38B500230446036000
:104B3C0010200D46FFF7A7FA28B10123C0E9013375
:104B4C00024B0360C5602060204638BDC8580B007E
:104B5C0038B5002383608B6804460D462BB10222C6
:104B6C009847EB68E360AB68A360204638BD000053
:104B7C00F0B589B004686846FFF734FF4FF00203C4
:104B8C00D4E84F2F002A03D1C4E8413F0029F7D1C4
:104B9C0025D104F10C0569462846FFF723FFBFF326
:104BAC005B8F01236370002004F10803BFF35B8F5C
:104BBC0053E8006F43E80002002AF9D1BFF35B8F82
:104BCC006EB1FFF717FC78B129463046FFF78CFF22
:104BDC003046FFF7D8FD10213046FFF758FA6846EB
:104BEC00FFF70DFF09B0F0BD314602A8FFF7B0FF8B
:104BFC00E068B4F9105008B100F084FD0690102064
:104C0C00ADF81C50FFF73FFA0546E8B10027876066
:104C1C001820FFF738FA044688B10146876002A8CD
:104C2C00FFF7BAFD049BA268A360059B049206A93A
:104C3C00E268E36004F110000592FFF7D3FE084B25
:104C4C00EB60084B2C60AB6006A8FFF7D8FE02A8FF
:104C5C00FFF799FD002229460348FFF7D3FBB7E77E
:104C6C00074B0B00894D0B00E5510B002DE9F04F64
:104C7C008BB005469DF850A00F4690469946FFF71D
:104C8C004DFC07AE834638BB4FF62E73059005A935
:104C9C003046ADF81830FFF7A5FE1420FFF7F3F9F6
:104CAC00044648B1022303700123C0E901BB4370E1
:104CBC0031460C30FFF796FE2846214640F8044B4F
:104CCC00FFF732FF3046FFF79AFE05A8FFF797FE75
:104CDC0028460BB0BDE8F08F0C2300241420CDE93E
:104CEC0008440793FFF7CFF9014618B1C0E9014416
:104CFC000470447004A80391FFF716FF1E4B089331
:104D0C000820FFF7C0F9044610B103A9FFF7C8FE4D
:104D1C0000965FFA8AF34A46414638460994FFF7F3
:104D2C0005FCB8B9039B5B7803F0FF0293B94FF60F
:104D3C009C7305A903A80592ADF81830FFF718FF6E
:104D4C0005A8FFF75CFE05A80999FFF7B2FE06A8B7
:104D5C00FFF7E6F903A905A8FFF7A2FE059B069A43
:104D6C002B606A60002306A806930593FFF7D8F919
:104D7C0004A8FFF7D5F9ABE7054E0B00012AF8B5EF
:104D8C00054603D10B6803600020F8BD022A10D041
:104D9C00032AF9D10468002CF6D004F11000FFF7B7
:104DAC002EFE2046FFF7EFFC18212046FFF76FF987
:104DBC00EAE718200E68FFF766F9044650B1314651
:104DCC00FFF7C6FE3069B6F9147008B100F09AFC12
:104DDC002061A7822C60D7E738B5002383608B68ED
:104DEC0004460D462BB102229847EB68E360AB6892
:104DFC00A360204638BD0000F0B589B004460D46CE
:104E0C0001A81146FFF755FEA4B124B21DB12846E6
:104E1C0000F078FC054601A803A90395ADF81040F5
:104E2C00FFF7A6FE03A8FFF7EAFD02A8FFF778F943
:104E3C0009B0F0BD019D0123D5E84F2F002A03D105
:104E4C00C5E8413F0029F7D1EFD12B73BFF35B8F3E
:104E5C006B702B1DBFF35B8F53E8006F43E8004270
:104E6C00002AF9D1BFF35B8F002EDED02046FFF76E
:104E7C00C1FA074660B105F10C013046FFF744FE5C
:104E8C003046FFF780FC10213046FFF700F9CCE7E5
:104E9C00314603A8FFF7A0FF2B7B8DF81C301020A8
:104EAC00FFF7F1F80546D0B187601420FFF7EBF857
:104EBC00044678B18760014603A8FFF76DFC059B9B
:104ECC00A268A360069B0592E268E3609DF81C3023
:104EDC0006922374064BEB60064B2C60AB6003A868
:104EEC00FFF751FC002229460348FFF78BFAC7E76E
:104EFC00274B0B00094F0B00E5510B00012A70B535
:104F0C00044603D10B680360002070BD022A0CD04C
:104F1C00032AF9D10468002CF6D02046FFF733FCA5
:104F2C0014212046FFF7B3F8EEE714200E68FFF7C4
:104F3C00AAF8054620B13146FFF74EFF337C2B749F
:104F4C002560E1E7704710B518210446FFF79FF87C
:104F5C00204610BDF0B5037D062B8DB00E4600F13A
:104F6C0004074FF0000412D000F1080515F8011DDC
:104F7C000A223046FFF755FCAF42044419D0002CEE
:104F8C00F4D02E213046FFF749FC0444EEE72F23E2
:104F9C006A4639460A208DF80040FFF763F96846E7
:104FAC0000F0CDFB33680246DB6869463046984713
:104FBC00044620460DB0F0BD10B5054B0446112239
:104FCC0040F8043B002100F05CFB204610BD00BF04
:104FDC00E4580B000346074A10B543F8042B01F1C3
:104FEC00100251F8044B43F8044B9142F9D10A7862
:104FFC001A7010BDE4580B0010B59DF8084044EA37
:10500C00032343EA024242EA01610423416003752F
:10501C0010BD000007B5064B0360CB7800938B786E
:10502C004A780978FFF7E8FF03B05DF804FB00BF8E
:10503C00E4580B00417470477047704708B5002165
:10504C00007CFFF7B7F940EAE07008BD08B5012114
:10505C00007CFFF7AFF940EAE07008BD08B5007CB2
:10506C00FFF7A0F920EAE07008BD08B5007CFFF757
:10507C0091F920EAE07008BD13B50446007C01915B
:10508C00FFF790F90028019901DC607C20B1207CAD
:10509C00FFF798F920EAE07002B010BD007CFFF732
:1050AC0099B910B514210446FEF7F1FF204610BD46
:1050BC0010B54FF47A73044608460021C4E9011375
:1050CC00044B23600123207463741146FFF75AF9D3
:1050DC00204610BDF8580B0010B5142204460021D0
:1050EC0000F0CFFA204610BD10B50F4C88B003A8C5
:1050FC00FFF7F2FF2178BFF35B8F11F001010FD1A5
:10510C0020460191FEF7C5FF019948B103AA074853
:10511C00FFF7CEFF2046FEF7C1FF054800F09DFAD1
:10512C00024808B010BD00BFF4E60320F8E60320E7
:10513C0045500B0070474174704708B5007CFFF771
:10514C00C9F820EAE07008BD08B5007CFFF79AF8B2
:10515C0020EAE07008BD08B5007CFFF7A3F840EA30
:10516C00E07008BD08B5007CFFF794F840EAE070E9
:10517C0008BD007CFFF79EB837B5457C04462DB1C1
:10518C00207C03B0BDE83040FFF774B8007C01917F
:10519C00FFF7A0F800280199F2DC284603B030BDD7
:1051AC0010B514210446FEF772FF204610BD000016
:1051BC0010B54FF47A730446084611460022C4E930
:1051CC000123044B2360012320746374FFF78AF8D6
:1051DC00204610BD28590B0010B5836804460BB946
:1051EC0000F038FAC3689847A3681BB10322214624
:1051FC002046984720461021BDE81040FEF747BFD7
:10520C007047F8B5064615460C468F18BC4206D0BA
:10521C00336814F8011B9B6830469847F6E728461C
:10522C00F8BD007C0022FFF765B8007C0021FFF779
:10523C0069B8007C0021FFF76DB8007C0021FFF7F6
:10524C0071B8007C0021FFF775B810B51421044625
:10525C00FEF71DFF204610BD10B54FF47A730446BF
:10526C0008460021C4E90113034B23602074114646
:10527C00FFF770F8204610BD58590B00002240680B
:10528C001146FFF7F3B8002240681146FFF70EB93C
:10529C00002240681146FFF719B940680022FFF759
:1052AC000DB94068002281F00101FFF7F7B8002327
:1052BC0040681A461946FFF7E9B8002340681A46B9
:1052CC001946FFF7DBB8002240681146FFF7BEB85D
:1052DC00406800220221FFF7C1B8002340681A463B
:1052EC00FFF7ACB8024B04225A60024A1A607047AE
:1052FC000CE7032080590B00002340681A46FFF787
:10530C009DB8406800220221FFF7A8B8002240682F
:10531C001146FFF79BB8002240681146FFF7A6B86C
:10532C00002340681A461946FFF7A8B800234068C6
:10533C001A461946FFF7AAB840680021FFF7CEB805
:10534C0040680021FFF7D2B84068002281F00101CB
:10535C00FFF7A4B840680022FFF7B0B800224068FD
:10536C001146FFF7B3B8002240681146FFF79EB80C
:10537C002DE9F04395B014460D460746FFF71CFE89
:10538C0000211C220DA8009100F07BF940230C9306
:10539C0020466B460CAA0021FEF71CFF0446002891
:1053AC004BD1024601216868FFF760F80221804664
:1053BC0022466868FFF75AF8009E81462146002E67
:1053CC003BD0002939D17368022B03D00A2B11D0A2
:1053DC00F669F4E7B8F1000FFAD0716906A8043148
:1053EC0007ADFFF717FE0FCD3C1D0FC42B682370C4
:1053FC004146EDE7B9F1000FEAD07469102201A81B
:10540C0000F03FF906238DF8143001AD04F10803C8
:10541C001834186859682A4603C20833A342154643
:10542C00F7D101A906A807ADFFF7D4FD0FCD3C1DA0
:10543C000FC42B6823704946CAE70098FEF7C2FEDA
:10544C00384615B0BDE8F083024B034A1A600022BF
:10545C005A60704714E70320BC590B00232813B57E
:10546C0002D9002002B010BDA0F10B03022B1AD8F8
:10547C00174C2178BFF35B8F11F001010BD1204643
:10548C000191FEF706FE019928B11248FFF7D4F8F6
:10549C002046FEF703FE0F4B1878FEF76BFF002833
:1054AC00DFD10120DEE7012809D800F0ADF800219A
:1054BC00007CFEF747FF80F00100C0B2D2E709384C
:1054CC000128EED800F064F8007CFEF7FBFEF2E752
:1054DC001CE7032020E70320232838B504460D469B
:1054EC000AD8FF2908D0FFF7B9FF28B12946204672
:1054FC00BDE83840FEF77EBE38BD38B504460D46D3
:10550C00FEF780FEFF2810D0062804D84D2323FA7E
:10551C0000F0C30709D42046FFF7A0FF28B12946A5
:10552C002046BDE83840FEF775BE38BD0D2810B5D5
:10553C0004469CBF0E34A4B22046FFF78FFF50B137
:10554C0003212046FEF74EFE032804D12046BDE879
:10555C001040FEF767BE002010BD704738B50446FA
:10556C0014252A46002100F08CF825804025074997
:10557C0025812846258200F06BF804496060284696
:10558C0000F066F8E060204638BD00BFF0590B0013
:10559C0030B50E4D2978BFF35B8F11F0010487B045
:1055AC0011D12846FEF775FD68B101A8FFF7D6FFAB
:1055BC0001AA21460648FFF7FBFD2846FEF76EFDC3
:1055CC00044800F04AF8024807B030BD28E7032031
:1055DC002CE7032067550B007047000038B52025D9
:1055EC00142304460360856005610649284600F0D3
:1055FC002FF804496060284600F02AF8E060204645
:10560C0038BD00BFF0590B0030B50E4D2978BFF3F3
:10561C005B8F11F0010487B011D12846FEF739FDDC
:10562C0068B101A8FFF7DAFF01AA21460648FFF787
:10563C0013FE2846FEF732FD044800F00EF802482F
:10564C0007B030BD44E7032048E70320E5550B00C5
:10565C00FEF71BBD08B5FEF791FF002301461A4665
:10566C00184600F075B80A44914200F1FF3300D19E
:10567C00704710B511F8014B03F8014F9142F9D165
:10568C0010BD02440346934200D1704703F8011B3E
:10569C00F9E7000038B5104B1D68AB6B0446B3B985
:1056AC001820FEF753FF0246A86320B90B4B0C4899
:1056BC004221FEF773FF0B490B4BC0E900130B4B58
:1056CC0083600B23838100210120C2E90401AB6BB1
:1056DC0000221C615A6138BD48E60320F1590B00C9
:1056EC00085A0B000E33CDAB34126DE6ECDE050020
:1056FC0010F8012B11F8013B012A28BF9A42F7D070
:10570C00D01A7047024B0146186800F003B800BF6E
:10571C0048E6032037B5044608460D4600F00FF85E
:10572C00421C114620460192FEF730FF044618B188
:10573C00019A2946FFF797FF204603B030BD034678
:10574C0013F8012B002AFBD1181A013870470000FE
:10575C002DE9F843DFF8B8800646D8F800001F465C
:10576C000D46914600F056F8254B1C6834B9254C73
:10577C001C60254B13B11B68C4F8883063681F2B61
:10578C0007DDD8F8000000F047F84FF0FF30BDE817
:10579C00F8834EB3D4F8880088B91C4B23B9D8F8D9
:1057AC00000000F038F8F0E74FF48470FEF7CEFEFE
:1057BC000028F4D00023C0E94033C4F888006368A3
:1057CC0040F8239001229A4000EB8301D0F800317D
:1057DC001343C0F80031022EC1F8807002BFD0F81C
:1057EC0004311343C0F804316368D8F800005A1C24
:1057FC000233626044F8235000F00EF80020C6E734
:10580C00E8E703205CE703200000000059450B008B
:10581C00ACE6032070477047704700001D400B003A
:10582C0059400B0081400B0085400B00000000002C
:10583C00616E616C6F6776616C7565006C65640098
:10584C006F6E004C4544204F6E006F6666004C45F1
:10585C0044204F66660000000000000000000000BD
:10586C0027460B001D460B0013460B0009460B0088
:10587C00FD450B00F1450B0045530B004D530B0040
:10588C00E5450B00DD450B00D3450B00C9450B006E
:10589C007D530B006170700025592D256D2D2564ED
:1058AC005425483A254D3A2553257A006173637483
:1058BC00696D65000000000000000000D5490B0078
:1058CC00DB490B00194A0B00E9490B00D7490B00C7
:1058DC000000000000000000614F0B00514F0B0056
:1058EC00534F0B00000000000000000047500B005D
:1058FC00AF500B0085500B00D9470B0077500B00B5
:10590C0049500B0059500B00A9500B0069500B006B
:10591C0041500B00000000000000000041510B0042
:10592C00AD510B0085510B00D9470B0055510B00A5
:10593C0071510B0063510B007F510B0043510B0055
:10594C0047510B0000000000000000000D520B003E
:10595C0057520B002F520B000F520B0037520B00FB
:10596C003F520B0047520B004F520B00000000003F
:10597C0000000000E7520B00DD520B00D3520B006D
:10598C0089520B00C7520B00BB520B0045530B0046
:10599C004D530B00AF520B00A7520B009D520B0046
:1059AC0093520B007D530B00000000000000000020
:1059BC0005530B000F530B0019530B0023530B0013
:1059CC002D530B0039530B0045530B004D530B005B
:1059DC0055530B0061530B0069530B0073530B00B1
:1059EC007D530B00005245454E54206D616C6C6F1D
:1059FC006320737563636565646564002F6D6E74F5
:105A0C002F776F726B73706163652F776F726B7327
:105A1C00706163652F4743432D31302D706970657C
:105A2C006C696E652F6A656E6B696E732D474343A7
:105A3C002D31302D706970656C696E652D34385F51
:105A4C0032303230313132345F31363036313830F9
:105A5C003634312F7372632F6E65776C69622F6EDB
:105A6C0065776C69622F6C6962632F7374646C69FF
:105A7C00622F72616E642E6300000000C5410B0042
:105A8C0031460B0059460B00C9470B006D480B0003
:105A9C007D480B0091480B00F1520B0055540B0044
:045AAC0000000000F6
:105AB000040000001400000003000000474E5500E1
:105AC000EFED1AFCE0D1C77FB8FFCA5505B7623FBA
:045AD000999C11D7B5
:045AD40000000000CE
:105AD80007000000B8580B004CE603200000000047
:105AE80000000000000000000000000000000000AE
:105AF800000000000000000000000000000000009E
:105B0800000000000000000000000000000000008D
:105B1800000000000000000000000000000000007D
:105B2800000000000000000000000000000000006D
:105B3800000000000000000000000000ECE7032067
:105B4800FFFFFFFF00000102030405060708090A1A
:105B58000B0C0D0E0F101112131415161718191A15
:085B68001B1C1D1E1F2028005C
:045B7000785634121D
:04000003B000401CED
:00000001FF
