:02000002B0004C
:1040000000400B004C860B00000006000C0005026F
:084010000401E50C00000000B2
:0440180014810B0004
:1040200009480A49884208B505D0094A824202D0A7
:10403000121A03F095FF0748074A0021121A03F0ED
:104040009DFF014808BD00BF20E5032008850B0047
:104050003CE6032040E60320F1E7032070B5074E5D
:10406000074C01F011FBA41BA4080025AC4200D1B1
:1040700070BD56F8043B98470135F7E7B4840B0050
:10408000D8840B0000F066B908B500F05DFABDE811
:10409000084001F0B1BA00F0EDBF00F0EBBF00F056
:1040A000F1BF0078B0FA80F0400970470123037037
:1040B0007047436913B183690C301847704713B5D3
:1040C00000210446084600F0D1FD0023204601A946
:1040D000019300F0E3FD019C0CB101232371002149
:1040E000012000F0C3FD2CB1236820469B6898474F
:1040F0000023237102B010BD012A02D1016000200B
:104100007047022A04BF0B680360F8E7036818478A
:1041100008B5002000F09EFF28B100F083FF80F07A
:104120000100C0B208BD0120FCE7000013B5054B3B
:104130001B788DF800303C23044601F029FC204612
:1041400002B010BD40E6032010B58368044613B1E9
:10415000032201469847204610BD000037B5134B97
:10416000036004468068C8B100256FF00043CDE9C4
:10417000003502212B462A4600F098FDA06829460A
:1041800000F0ACFD237903F0FF0513B100F066FDEC
:10419000F8E7A068294600F079FDA56004F10C005D
:1041A000FFF7D2FF204603B030BD00BF64820B0092
:1041B00010B50446FFF7D2FF20461C21FFF76FFF22
:1041C000204610BD0000000010B504461C4800F059
:1041D0007DFC1B4800F020FC194800F01DFC18482D
:1041E00084ED010A00F072FC94ED017ADFED157A9E
:1041F00084ED000AC7EE277A17EE900A03F0FEFA64
:104200009FED0B1B41EC100B02F00EF90E4953EC25
:10421000102B002003F092F907A3D3E9002303F049
:1042200045FB03F013FEA06010BD00BFAFF300809C
:104230006C45D9CC955BC83F0000000040A5E54027
:104240004CE6032080E6C5470000F03F0000000078
:104250002DE9F04721A7D7E900670FF28809D9E9CE
:1042600000892DED028B9FED1C8A4FF00F0A0F2065
:1042700002F03FF803F0B0FA32463B4603F016FB7B
:1042800042464B4603F03CFC11A3D3E9002303F064
:104290000DFB32463B4603F033FC044618EE100A91
:1042A0000D4603F0ABFA02460B462046294603F0C2
:1042B00047F903F0CBFDBAF1010A08EE100AD6D196
:1042C000B2EE0E0A88EE000ABDEC028BBDE8F08764
:1042D000CDCCCCCCCCCC104000000000666666662D
:1042E00066660A4000000000007CAF4073B50446DB
:1042F0000F250026208801F0FCFF013D0644F9D17E
:1043000064230093D4E901122B460F2096FBF0F0B2
:1043100001F03AF9E06002B070BD000038B50C4B16
:1043200000241D4653F8042B117C01290BD1908ADF
:1043300001F0B3FF55F82400FFF7D8FF55F82430FB
:1043400002221A7438BD0134042CEBD1FAE700BF05
:1043500020E5032038B502F03BF801F025FE01F01E
:1043600059FD4FF4165101F049FD02F031F8602279
:1043700001462B482B4D00F0DCFA294800F00FFBDA
:104380000721274800F018FB254800F029FB0121F0
:10439000052001F071FF0121042001F06DFF0121D2
:1043A000032001F069FF0121022001F065FF0121D6
:1043B0000D2001F061FF0021062001F05DFF0021CA
:1043C000072001F059FF0021082001F055FF0121CD
:1043D0000C2001F051FF0121052001F05EFF0121B9
:1043E000042001F05AFF0121032001F056FF0121B2
:1043F000022001F052FF0C4A0C490D4801F0D1F99E
:1044000001F066F8B7EE000A01F042F8002455F812
:10441000040B0134FFF76AFF042CF8D138BD00BF4C
:104420004CE6032020E5032028810B0019460B00F1
:1044300077570B0010B5082001F048FF044607200D
:1044400001F044FF4300062043EA840401F03EFFEC
:104450002043072896BF024B0020185610BD00BF0E
:1044600070820B002DE9F341FFF7E4FF2A49002891
:104470004CD02A4D087800221446A8464FF0020C72
:1044800055F8043B1E7C002E3BD1DF681E6AB74204
:104490002EDC02B108700122214D988A1A74002185
:1044A00001F0FBFEA86850B16FF00041002258F8FF
:1044B0002430CDE9001203219B6900F0F7FBA868C6
:1044C00030B10023CDE900331A46022100F0EEFBA3
:1044D000A86848B100246FF00043CDE900342246BB
:1044E0002346214600F0E2FB002002B0BDE8F08147
:1044F00083F810C00134042CC2D1002AF4D0087013
:10450000F2E7032C04BF01221046F3E701230B70EE
:104510004FF0FF30E9E700BF48E6032020E5032025
:1045200060E60320064A00231370064A11680B74E4
:1045300051680B749168D2680B741374704700BF94
:1045400048E6032020E5032010B5244C00F06EFB64
:104550002368C01A224B984212D900F063FD10B1B3
:10456000002000F06FFDFFF7D3FD10B900F052FD01
:10457000F9E7FFF7CDFD00F059FB2060FFF7D2FF10
:1045800000F0E0FF152807D1164B197821B9164B1A
:10459000986868B9FFF766FF00F0D4FF14280CDCB8
:1045A00000F0D0FF98B1FFF745FFA8B1002109E066
:1045B00000F08CFB0028EDD0EEE7FFF73BFF002872
:1045C000EED10121BDE810400C2001F066BEFFF7DE
:1045D00031FF0028E7D1E9E710BD00BF44E6032022
:1045E000005C260548E6032060E6032038B5046831
:1045F00005467CB16368013B63605BB92368204674
:104600009B689847A368013BA3601BB923682046B9
:10461000DB689847284638BD2DE9F043804991B0C2
:10462000054600F04AFED8B1FFF712FE10EE100A60
:1046300003F0E4F802460B460CA87A4900F050FE5D
:104640000C9A79490AA8FFF771FD0BA8FFF7CEFF76
:104650000CA800F0B9FD0024204611B0BDE8F0839D
:104660007249284600F029FE0446D0B1704C2068FB
:10467000FFF73CFE09906068FFF738FE0690A068DF
:10468000FFF734FE0546E068FFF730FE099A6949F6
:10469000069BCDE900500CA800F022FE0C9A66495A
:1046A000D0E76649284600F008FE08B3FFF7C2FECF
:1046B0000990082001F00AFE0690072001F006FE8E
:1046C0000546062001F002FE099A5D49069BCDE9E8
:1046D00000500CA800F004FE0C9A5A490AA8FFF7F3
:1046E00025FD0BA8FFF782FF0CA800F06DFDB3E7D6
:1046F0005549284600F0E1FD044640B3534C20469E
:10470000FFF762FD206803F079F802460B46A068C7
:10471000CDE9062303F072F880466068894603F00D
:104720006DF80D46044600F00DFF074600F016FF39
:10473000DDE90623CDE904704549CDE90245CDE91F
:1047400000890CA800F0CCFD0C9A42497AE7424956
:10475000284600F0B2FD20B12146022001F09DFD67
:104760007AE73E49284600F0A8FD044620B1012121
:10477000022001F092FD6EE73949284600F09DFDC8
:1047800010B121460320E9E73649284600F095FD9F
:10479000044610B101210320EBE73349284600F01D
:1047A0008CFD10B121460420D8E73049284600F09E
:1047B00084FD10B101210420DBE72D49284600F0DB
:1047C0007CFD10B100210520D3E72A49284600F0DE
:1047D00074FD044608B10121F5E72749284600F099
:1047E0006CFD88B11249C8684B680A68007C127C6D
:1047F0001B7C01908968097C00910CA81F4900F07E
:104800006FFD0C9A1E4969E71E4A1F490CA8FFF765
:104810008DFC0DA8FFF7EAFE4FF0FF341CE700BF48
:104820002D810B0035810B003C810B004C810B006E
:1048300020E5032055810B0078810B0081810B005E
:1048400087810B009D810B00A9810B0054E603209A
:10485000B1810B00E2810B00EC810B00EA810B00BF
:10486000F3810B00F1810B00FA810B00F8810B0042
:1048700001820B00FF810B004A820B0006820B00B5
:1048800024820B002B820B0051820B0070B51C4B55
:10489000002588B01D7000F0C9F91A4B18601A483D
:1048A00000F044F8194B049304AC194B194A1A60F0
:1048B00094E8030003F10C0202AE86E8030092E8DC
:1048C000030084E8030096E8030082E80300124A2C
:1048D0005A619A690792114A9A6101221D719D607D
:1048E00047F23051009203F108000D4A01950695F8
:1048F00000F0C4F92046FFF727FC08B070BD00BFE8
:1049000040E6032044E603204CE603201D430B0051
:1049100060E6032064820B00F9400B000D410B00A0
:10492000BF400B000368C9B29B681847602303713E
:10493000704701600271704738B504460D46017931
:10494000006801F063FB2068036829469B6898476C
:104950002068002101F05EFB21792068012201F02E
:1049600052FB206803685B699847C0B238BD70B5D8
:1049700004460E4601790068154601F047FB2068A1
:10498000036831469B6898472068036829469B68FE
:10499000984720680121BDE8704001F03BBB10B58D
:1049A00026210446FFF7C8FF262100F07F0220469B
:1049B000BDE81040FFF7DBBF072928BF072138B546
:1049C0000D4626210446FFF7B7FF00F0C70343EA70
:1049D000C5022046D2B2BDE838402621FFF7C7BF46
:1049E00007221321FFF7C3BF10B526210446FFF7A6
:1049F000A3FF262100F0FD022046FFF7B8FF262185
:104A00002046FFF799FF40F00200C2B2262120465F
:104A1000BDE81040FFF7ABBFF8B500210546FFF732
:104A20008BFF420702D42846FFF7DEFF40F25924ED
:104A300000212846FFF780FF430708D4013C02D13C
:104A40009FED210AF8BD012000F0AAFDF0E72979C9
:104A5000286801F0DBFA28680121FFF763FF0021D5
:104A6000286801F0D7FA29792868032201F0CBFAE7
:104A70000328E5D1286803685B69984704462868DD
:104A800003685B6998470746286803685B6998472D
:104A900024043F02064604F47F042846BFB2FFF711
:104AA000A3FF3C43F0B20443A311C0F3011007EE8F
:104AB000900A00EE103AF8EE677AB8EEC00AB5EE4A
:104AC000007AA7EE870ABDE700C079C4F8B50021D7
:104AD0000446FFF731FF810702D42046FFF784FF29
:104AE00040F2592500212046FFF726FF820708D40F
:104AF000013D02D19FED260AF8BD012000F050FDD6
:104B0000F0E72179206801F081FA20680421FFF79D
:104B100009FF0021206801F07DFA21792068022236
:104B200001F071FA0228E5D1206803685B699847B3
:104B3000C6B20746206803685B699847C5B220463D
:104B4000FFF752FF3B0641BF05EB06256D42C5F35B
:104B5000072605F0F0054FEA15104CBF012400248C
:104B600002F03AFE0B4B002202F0A0FE03F06EF9B9
:104B700007EE906AB8EEE70A07EE900A37EE800A71
:104B8000002CB9D0DFED047A37EEC00AB4E700BFDD
:104B900000C079C40000B03F0000000008B5024B1F
:104BA0001B689B68019308BD6802030008B5024BAF
:104BB0001B68DB68019308BD6802030008B5024B5F
:104BC0001B685B68019308BD2C02030008B5024B0B
:104BD0001B689B68019308BD2C02030008B5024BBB
:104BE0001B68DB68019308BD2C02030008B5024B6B
:104BF0001B681B69019308BD2C02030008B5024B1A
:104C00001B685B69019308BD2C02030008B5024BC9
:104C10001B681B6B019308BD2C02030008B5024BF7
:104C20001B685B68019308BD1802030008B5024BBE
:104C30001B685B69019308BD1802030008B5024BAD
:104C40001B689B6D019308BD1802030008B5024B59
:104C50001B685B6E019308BD1802030008B5024B88
:104C60001B68DB68019308BD4802030008B5024BCE
:104C70001B68DB69019308BD4802030008B5024BBD
:104C80001B681B6A019308BD4802030008B5024B6C
:104C90001B685B6A019308BD4802030008B5024B1C
:104CA0001B689B6A019308BD4802030008B5024BCC
:104CB0001B68DB6A019308BD4802030008B5024B7C
:104CC0001B685B6C019308BD4802030008B5024BEA
:104CD0001B689B6D019308BD4802030008B5024B99
:104CE0001B681B6F019308BD4802030008B5024B07
:104CF0001B685B69019308BD6402030008B5024BA1
:104D00001B68DB68019308BD3C02030008B5024B39
:104D10001B681B69019308BD3C02030008B5024BE8
:104D20001B685B69019308BD3C02030008B5024B98
:104D30001B689B69019308BD3C02030008B5024B48
:104D40001B68DB69019308BD3C02030008B5024BF8
:104D50001B681B6A019308BD3C02030008B5024BA7
:104D60001B689B6A019308BD3C02030008B5024B17
:104D70001B681B6C019308BD3C02030008B5024B85
:104D80001B68DB68019308BD2802030008B5024BCD
:104D90001B689B69019308BD2802030008B5024BFC
:104DA0001B68DB69019308BD2802030008B5024BAC
:104DB0001B681B6A019308BD2802030008B5024B5B
:104DC0001B685B6A019308BD2802030008B5024B0B
:104DD0001B689B6A019308BD2802030008B5024BBB
:104DE0001B68DB6A019308BD2802030008B5024B6B
:104DF0001B681B6B019308BD2802030008B5024B1A
:104E00001B685B6B019308BD2802030008B5024BC9
:104E10001B681B6C019308BD2802030008B5024BF8
:104E20001B681B6D019308BD2802030008B5024BE7
:104E30001B68DB69019308BD3002030008B5024B13
:104E40001B681B6A019308BD3002030008B5024BC2
:104E50001B681B68019308BD4C02030008B5024B98
:104E60001B685B68019308BD4C02030008B5024B48
:104E70001B681B69019308BD4C02030008B5024B77
:104E80001B685B69019308BD4C02030008B5024B27
:104E90001B689B69019308BD4C02030008B5024BD7
:104EA0001B68DB69019308BD4C02030008B5024B87
:104EB0001B681B6A019308BD4C02030008B5024B36
:104EC0001B681B68019308BD2002030008B5024B54
:104ED0001B685B68019308BD2002030008B5024B04
:104EE0001B685B69019308BD2002030008B5024BF3
:104EF0001B68DB6C019308BD2002030008B5024B60
:104F00001B685B6D019308BD2002030008B5024BCE
:104F10001B689B6D019308BD2002030008B5034B7D
:104F20001B68D3F88830019308BD000020020300FD
:104F300008B5034B1B68D3F89430019308BD0000FB
:104F40002002030008B5024B1B685B68019308BD93
:104F50004002030008B5024B1B689B68019308BD23
:104F60004002030008B5024B1B68DB68019308BDD3
:104F70004002030008B5024B1B681B69019308BD82
:104F80004002030008B5024B1B685B69019308BD32
:104F90004002030008B5024B1B689B69019308BDE2
:104FA0004002030008B5024B1B68DB69019308BD92
:104FB0004002030008B5024B1B681B6A019308BD41
:104FC0004002030008B5024B1B681B6B019308BD30
:104FD0004002030008B5024B1B685B6B019308BDE0
:104FE0004002030008B5024B1B681B6C019308BD0F
:104FF0004002030008B5024B1B685B6C019308BDBF
:105000004002030008B5024B1B685B68019308BDB2
:105010004402030008B5024B1B689B68019308BD5E
:105020004402030008B5024B1B685B69019308BD8D
:105030004402030008B5024B1B681B6A019308BDBC
:105040004402030008B5024B1B68DB6A019308BDEC
:105050004402030008B5024B1B681B6B019308BD9B
:105060004402030008B5024B1B68DB6B019308BDCB
:105070004402030008B5024B1B681B68019308BD7E
:105080001C02030008B5024B1B685B68019308BD56
:105090001C02030008B5024B1B689B68019308BD06
:1050A0001C02030008B5024B1B685B6A019308BD34
:1050B0001C02030008B5024B1B68DB6A019308BDA4
:1050C0001C02030008B5024B1B681B6B019308BD53
:1050D0001C02030008B5024B1B68DB6B019308BD83
:1050E0001C02030008B5024B1B681B6C019308BD32
:1050F0001C02030008B5024B1B685B6C019308BDE2
:105100001C02030008B5024B1B68DB6C019308BD51
:105110001C020300002240681146FFF74BBF00222B
:1051200040681146FFF756BF40680022FFF74ABFAC
:105130004068002281F00101FFF734BF002340687E
:105140001A461946FFF726BF002340681A4619463B
:10515000FFF718BF002240681146FFF70BBF00227F
:1051600040681146FFF7F6BE406800220221FFF7B3
:10517000F9BE002340681A46FFF7E4BE024B032243
:105180005A60024A1A6070477CE6032080820B0056
:1051900010B5044608462170FFF748FE00236360FF
:1051A000204610BD054B02221A60054B054A9A6045
:1051B0000020C3E90000FFF789BE00BF90E603208E
:1051C00084E603200000FFFF10B504460068FFF7E7
:1051D00059FF204610BD10B50446006808B1FFF71E
:1051E00051FF0023C4E90133236010BD38B50446E4
:1051F0000D4600680131FFF74DFF10B1C4E900050D
:10520000012038BD10B50368044623B143688B42C2
:1052100001D3012010BD2046FFF7E8FF0028F9D098
:10522000A368002BF5D122681370F2E737B50D465D
:10523000114601920446FFF7E5FF019A28B920467E
:10524000FFF7C9FF204603B030BDA26029462068A1
:1052500002F086FE2268A3680021D154F2E7002301
:1052600013B5C0E9003304468360037341B10846B7
:10527000019102F0E0FE019902462046FFF7D6FFB9
:10528000204602B010BD884210B5044605D00B6818
:105290002BB18A681946FFF7C9FF204610BDFFF7FA
:1052A0009AFFFAE710B500230446C0E90033836093
:1052B0000373FFF7E8FF204610BD08B582683AB9CE
:1052C00021B10878B0FA80F0400900E0012008BD63
:1052D000006809B90078F5E702F086FEF2E7000001
:1052E0000EB470B587B00BAD044655F8042B01928F
:1052F0002B46052104A80395FFF7D4FE0B4906466B
:105300002046FFF7ACFF31462046FFF77BFF2068C1
:1053100030B1019A03952B46711CFFF7C3FEA060C4
:10532000204607B0BDE8704003B0704723820B00F1
:1053300013B50B460246D0E900016C4684E8030031
:1053400093E8030082E8030094E8030083E8030085
:1053500002B010BD024800230360FFF7AFBC00BFDE
:1053600094E60320F8B506460D468F180024BD428A
:105370000CD0336815F8011B9B6830469847031E14
:1053800001DB1C44F3E7002C08BF1C462046F8BD97
:1053900013B50446084659B1019102F04CFE23684A
:1053A0000199DB680246204602B0BDE8104018476C
:1053B00002B010BD03689B68184730B58BB000235E
:1053C000012A8DF8243098BF0A2209AC0D46B1FBA2
:1053D000F2F101FB125303F0FF03092B94BF3033AA
:1053E0003733DBB2AA4204F8013DEFD92146FFF77B
:1053F000CFFF0BB030BD0000014B024A1A6070476E
:1054000098E60320B4820B002DE9F041154ADFF83D
:105410006080D2E90063801943EB0101124BD3E9AC
:105420000067D8E90023861941EB0707BB4208BF94
:10543000B2428CB013D003A96846CDE90067FFF7EC
:1054400061FE089B094D03F26C7303AC08930FCC0B
:105450000FC50FCC0FC5C8E9006723682B600CB0DF
:10546000BDE8F081D0E60320C8E60320A0E60320D3
:10547000D8E6032008B50020FFF7ECFD28B1FFF7C0
:10548000D1FD80F00100C0B208BD0120FCE70000A2
:10549000FAEE087AB4EEE70AF1EE10FA08B511D484
:1054A000F2EE0C7AB4EEE70AF1EE10FA0ADCDFED68
:1054B000067A60EE277A17EE900A02F017FD034B8A
:1054C000C3E9000108BD00BF00006145D0E603202C
:1054D000034BD3E90001034BC3E90001704700BF50
:1054E000C8E50320C8E6032010B50020FFF7A6FB9F
:1054F0000446A0B9FFF7E2FC012810D12046FFF7CF
:1055000005FD60B9FFF7B6FF10B9FFF783FDF9E7B6
:10551000FFF7B0FFBDE810400020FFF78FBB20462B
:1055200010BD1FB5FFF7E0FF10220021684602F012
:1055300025FD00216846FFF789FB009805B05DF85E
:1055400004FB000008B5FFF7ECFFC117FFF75CFF95
:10555000014B986808BD00BFA0E6032008B5FFF71F
:10556000E0FFC117FFF750FF014B586808BD00BFAF
:10557000A0E60320024B1A68024B1A60704700BF76
:10558000C0E503209CE603208A4210B507D0441AE8
:105590000298C01A4443501A94FBF0F0184410BD0E
:1055A0000021FFF79BBC0000014B00229A6070476E
:1055B000E0E60320014B1860704700BFD4E50320EC
:1055C00008B50B4B43B100F025FC03681B699847F5
:1055D000002801DDAFF30080064B43B100F0BCFEB4
:1055E00003681B699847002801DDAFF3008008BD00
:1055F000000000000000000008B5FFF7E1FFFFF722
:1056000015FB014B186008BD44E703200548064A16
:10561000064908B5121A02F0A3FC054B054A1A60A8
:1056200008BD00BF00F4032004F4032004850B0030
:1056300000F403201E1C279A07B5002300931A4686
:105640006FF07701FFF774FC03B05DF804FB000016
:1056500007B543880A2B08D0502B0BD1094B1B6888
:105660004BB103B05DF804EB1847FFF7E5FF03B05B
:105670005DF804FB002300931A466FF07701FFF7F3
:1056800057FCF4E7F4E6032010B512480021FFF7B9
:1056900031FD114B1A68114B9A42114B0CBF01227C
:1056A00000221A7001D0FFF7B1FFFFF7B7FA0446E6
:1056B00002F06CFC0B4B13B12046AFF300800021CD
:1056C0000848FFF7CFFCBDE8104007480021FFF76E
:1056D00025BC00BFB5550B0000F403201E1C279A03
:1056E000F0E603200000000051560B007047002038
:1056F000704710B510210446FEF7D1FC204610BDBE
:1057000008B5FFF7F6FF08BD30B500224FF69C74D0
:10571000026084808D888C800C68858004600A60BB
:1057200030BD10B504460068FFF7ACFC204610BD44
:1057300038B5C468F4B12378022B03D104F10C000E
:10574000FFF7EFFF656835B12846FEF7FDFC102135
:105750002846FEF7A4FCA56835B12846FEF7F4FC00
:1057600010212846FEF79BFC20461421BDE8384056
:10577000FEF795BC38BD10B588B004466846FFF703
:105780006EFD694604A8FFF78DFD04A8A0470446F6
:1057900004A8FFF719FD6846FFF716FD204608B07C
:1057A00010BD1FB50023CDE90201019210241A4655
:1057B00069461846ADF80230ADF80040FFF722FC0C
:1057C00004B010BD0B6803604B68436013B15A68A6
:1057D00001325A60704737B5044668460D46FFF7F8
:1057E000F1FF009B019A23606260002301A80193EE
:1057F0000093FEF7FBFE35B1281DFEF7F7FE0821EA
:105800002846FEF74CFC204603B030BD826810B538
:105810000AB900F003FEBDE81040C368184708B598
:10582000006800F11001FFF7F1FF08BD826810B5B4
:105830000AB900F0F3FDBDE81040C368184708B589
:10584000006800F11001FFF7F1FF08BD38B5002333
:105850000446036010200D46FEF71DFC28B101230D
:10586000C0E90133024B0360C5602060204638BDAB
:10587000DC820B0038B5002383608B6804460D463C
:105880002BB102229847EB68E360AB68A360204627
:1058900038BD0000F0B589B004686846FFF734FFF2
:1058A0004FF00203D4E84F2F002A03D1C4E8413F50
:1058B0000029F7D125D104F10C0569462846FFF7E8
:1058C00023FFBFF35B8F01236370002004F1080303
:1058D000BFF35B8F53E8006F43E80002002AF9D161
:1058E000BFF35B8F6EB1FFF701FB78B129463046FD
:1058F000FFF78CFF3046FEF727FC10213046FEF7FD
:10590000CEFB6846FFF70DFF09B0F0BD314602A897
:10591000FFF7B0FFE068B4F9105008B102F06EFB79
:1059200006901020ADF81C50FEF7B5FB0546E8B117
:10593000002787601820FEF7AEFB044688B10146B9
:10594000876002A8FFF7F4FC049BA268A360059B94
:10595000049206A9E268E36004F110000592FFF7E3
:10596000D3FE084BEB60084B2C60AB6006A8FFF73A
:10597000D8FE02A8FEF7E8FB002229460348FFF7FD
:10598000BDFAB7E71F580B00A15A0B00055F0B00CB
:105990002DE9F04F8BB005469DF850A00F4690467C
:1059A0009946FFF73FFB07AE834638BB4FF62E7391
:1059B000059005A93046ADF81830FFF7A5FE142074
:1059C000FEF769FB044648B1022303700123C0E9D6
:1059D00001BB437031460C30FFF796FE2846214646
:1059E00040F8044BFFF732FF3046FFF79AFE05A858
:1059F000FFF797FE28460BB0BDE8F08F0C2300247C
:105A00001420CDE908440793FEF745FB014618B181
:105A1000C0E901440470447004A80391FFF716FF25
:105A20001E4B08930820FEF736FB044610B103A96D
:105A3000FFF7C8FE00965FFA8AF34A4641463846A9
:105A40000994FFF7F7FAB8B9039B5B7803F0FF02FC
:105A500093B94FF69C7305A903A80592ADF81830C9
:105A6000FFF718FF05A8FFF75CFE05A80999FFF7E7
:105A7000B2FE06A8FEF7BAFD03A905A8FFF7A2FE2D
:105A8000059B069A2B606A60002306A8069305937F
:105A9000FEF7ACFD04A8FEF7A9FDABE71D5B0B000C
:105AA000012AF8B5054603D10B6803600020F8BD54
:105AB000022A10D0032AF9D10468002CF6D004F190
:105AC0001000FFF72EFE2046FEF73EFB1821204671
:105AD000FEF7E5FAEAE718200E68FEF7DCFA04465E
:105AE00050B13146FFF7C6FE3069B6F9147008B1FF
:105AF00002F084FA2061A7822C60D7E738B5002332
:105B000083608B6804460D462BB102229847EB68F0
:105B1000E360AB68A360204638BD0000F0B589B0F3
:105B200004460D4601A81146FFF755FEA4B124B264
:105B30001DB1284602F062FA054601A803A90395A3
:105B4000ADF81040FFF7A6FE03A8FFF7EAFD02A894
:105B5000FEF74CFD09B0F0BD019D0123D5E84F2FA4
:105B6000002A03D1C5E8413F0029F7D1EFD12B73BB
:105B7000BFF35B8F6B702B1DBFF35B8F53E8006F20
:105B800043E80042002AF9D1BFF35B8F002EDED03C
:105B90002046FFF7ABF9074660B105F10C0130462E
:105BA000FFF744FE3046FEF7CFFA10213046FEF7ED
:105BB00076FACCE7314603A8FFF7A0FF2B7B8DF8E0
:105BC0001C301020FEF767FA0546D0B1876014201C
:105BD000FEF761FA044678B18760014603A8FFF733
:105BE000A7FB059BA268A360069B0592E268E360A1
:105BF0009DF81C3006922374064BEB60064B2C601C
:105C0000AB6003A8FEF7A0FA002229460348FFF77D
:105C100075F9C7E73F580B00215C0B00055F0B00CF
:105C2000012A70B5044603D10B680360002070BDE3
:105C3000022A0CD0032AF9D10468002CF6D02046A1
:105C4000FEF782FA14212046FEF729FAEEE7142027
:105C50000E68FEF720FA054620B13146FFF74EFFE9
:105C6000337C2B742560E1E7704710B5182104469A
:105C7000FEF715FA204610BDF0B5037D062B8DB05A
:105C80000E4600F104074FF0000412D000F10805A1
:105C900015F8011D0A223046FFF78FFBAF4204447E
:105CA00019D0002CF4D02E213046FFF783FB04449A
:105CB000EEE72F236A4639460A208DF80040FFF7A9
:105CC00015F8684602F0B7F933680246DB686946A2
:105CD00030469847044620460DB0F0BD10B5054B40
:105CE0000446112240F8043B002102F047F9204607
:105CF00010BD00BFF8820B000346074A10B543F8F9
:105D0000042B01F1100251F8044B43F8044B91426B
:105D1000F9D10A781A7010BDF8820B0010B59DF801
:105D2000084044EA032343EA024242EA01610423B1
:105D30004160037510BD000007B5064B0360CB78CA
:105D400000938B784A780978FFF7E8FF03B05DF895
:105D500004FB00BFF8820B00417470477047704726
:105D600008B50021007CFFF791F840EAE07008BD1B
:105D700008B50121007CFFF789F840EAE07008BD12
:105D800008B5007CFFF77AF820EAE07008BD08B596
:105D9000007CFFF76BF820EAE07008BD13B50446FD
:105DA000007C0191FFF76AF80028019901DC607C12
:105DB00020B1207CFFF772F820EAE07002B010BD3D
:105DC000007CFFF773B810B514210446FEF767F99D
:105DD000204610BD10B54FF47A73044608460021E2
:105DE000C4E90113044B236001232074637411463A
:105DF000FFF72CF8204610BD0C830B00007C00221E
:105E0000FFF72CB810B514220446002102F0B6F8B2
:105E1000204610BD10B50F4C88B003A8FFF7F2FF65
:105E20002178BFF35B8F11F001010FD12046019162
:105E3000FEF737F9019948B103AA0748FFF7CAFFEF
:105E40002046FEF733F9054802F084F8024808B00E
:105E500010BD00BFF8E60320FCE603205D5D0B00EB
:105E600070474174704708B5007CFEF777FF20EA61
:105E7000E07008BD08B5007CFEF748FF20EAE0703E
:105E800008BD08B5007CFEF751FF40EAE07008BD90
:105E900008B5007CFEF742FF40EAE07008BD007CD8
:105EA000FEF74CBF37B5457C04462DB1207C03B0CE
:105EB000BDE83040FEF722BF007C0191FEF74EFFA7
:105EC00000280199F2DC284603B030BD10B514213A
:105ED0000446FEF7E4F8204610BD000010B54FF46C
:105EE0007A730446084611460022C4E90123044B94
:105EF0002360012320746374FEF738FF204610BD31
:105F00003C830B0010B5836804460BB900F086FA99
:105F1000C3689847A3681BB10322214620469847CF
:105F200020461021BDE81040FEF7B9B87047F8B51B
:105F3000064615460C468F18BC4206D0336814F846
:105F4000011B9B6830469847F6E72846F8BD007C61
:105F50000022FEF72BBF007C0021FEF72FBF007C44
:105F60000021FEF733BF007C0021FEF737BF007C25
:105F70000021FEF73BBF10B514210446FEF78FF851
:105F8000204610BD10B54FF47A7304460846002130
:105F9000C4E90113034B236020741146FEF736FF5A
:105FA000204610BD6C830B000023007C1A46194666
:105FB000FEF7E4BE7FB500221423CDE90122ADF83F
:105FC00004300B788DF808304B680393CB6804934A
:105FD000007C0B7A059301A9FEF720FF07B05DF85E
:105FE00004FB1FB5003B8DF800104FF064010391D6
:105FF00018BF0123694601928DF80830FFF7DAFFD8
:1060000005B05DF804FB0123FFF7EBBF007C002225
:10601000FEF7BCBE007C0022FEF7C0BE0022406836
:106020001146FEF7A7BF002240681146FEF7C2BF27
:10603000002240681146FEF7CDBF40680022FEF7FF
:10604000C1BF4068002281F00101FEF7ABBF002311
:1060500040681A461946FEF79DBF002340681A465D
:106060001946FEF78FBF002240681146FEF772BF47
:10607000406800220221FEF775BF002340681A46DF
:10608000FEF760BF024B04225A60024A1A60704752
:1060900010E7032094830B00002340681A46FEF7A4
:1060A00051BF406800220221FEF75CBF0022406819
:1060B0001146FEF74FBF002240681146FEF75ABF57
:1060C000002340681A461946FEF75CBF002340686B
:1060D0001A461946FEF75EBF40680021FEF782BFF0
:1060E00040680021FEF786BF4068002281F0010170
:1060F000FEF758BF40680022FEF764BF00224068E8
:106100001146FEF767BF002240681146FEF752BFF6
:106110002DE9F04395B014460D460746FFF7DEFD26
:1061200000211C220DA8009101F028FF40230C93B0
:1061300020466B460CAA0021FEF738FD04460028D5
:106140004BD1024601216868FEF714FF0221804608
:1061500022466868FEF70EFF009E81462146002E0B
:106160003BD0002939D17368022B03D00A2B11D000
:10617000F669F4E7B8F1000FFAD0716906A80431A6
:1061800007ADFFF7D9FD0FCD3C1D0FC42B68237061
:106190004146EDE7B9F1000FEAD07469102201A879
:1061A00001F0ECFE06238DF8143001AD04F1080374
:1061B0001834186859682A4603C20833A3421546A2
:1061C000F7D101A906A807ADFFF796FD0FCD3C1D3D
:1061D0000FC42B6823704946CAE70098FEF7DEFC1F
:1061E000384615B0BDE8F083024B034A1A6000221E
:1061F0005A60704718E70320D0830B00232813B59B
:1062000002D9002002B010BDA0F10B03022B1AD856
:10621000174C2178BFF35B8F11F001010BD12046A1
:106220000191FDF73EFF019928B11248FEF7B0FF3A
:106230002046FDF73BFF0F4B1878FEF7FFFD0028C7
:10624000DFD10120DEE7012809D800F0C1F80021E4
:10625000007CFEF7D3FD80F00100C0B2D2E7093820
:106260000128EED800F078F8007CFEF76FFDF2E729
:1062700020E7032024E70320232838B504460D46F1
:106280000AD8FF2908D0FFF7B9FF28B129462046D0
:10629000BDE83840FEF79ABC38BD38B504460D4617
:1062A000FEF79CFCFF2810D0062804D84D2323FAC3
:1062B00000F0C30709D42046FFF7A0FF28B1294604
:1062C0002046BDE83840FEF791BC38BD10B5044605
:1062D000FEF784FC031FDBB2012B08D92046FFF731
:1062E0008DFF20B12046BDE81040FEF787BC00209E
:1062F00010BD0D2810B504469CBF0E34A4B2204634
:10630000FFF77CFF50B103212046FEF757FC03281E
:1063100004D12046BDE81040FEF778BC002010BD37
:106320007047000038B5044614252A46002101F0C4
:1063300025FE25804025074925812846258200F035
:106340006BF804496060284600F066F8E06020467B
:1063500038BD00BF04840B0030B50E4D2978BFF363
:106360005B8F11F0010487B011D12846FDF799FE2B
:1063700068B101A8FFF7D6FF01AA21460648FFF73A
:10638000ADFD2846FDF792FE044801F0E3FD02480A
:1063900007B030BD2CE7032030E7032021630B005A
:1063A0007047000038B5202514230446036085603B
:1063B00005610649284600F02FF804496060284628
:1063C00000F02AF8E060204638BD00BF04840B00CE
:1063D00030B50E4D2978BFF35B8F11F0010487B003
:1063E00011D12846FDF75DFE68B101A8FFF7DAFF7D
:1063F00001AA21460648FFF7C5FD2846FDF756FECF
:10640000044801F0A7FD024807B030BD48E703206B
:106410004CE70320A1630B00FDF73FBE08B5FEF774
:1064200049FE000000000000F8B52DED028B57EC8E
:10643000106B55EC114B00F0CBF8634BB0EE408A7B
:10644000F0EE608A93F9003001332AD022462B46C1
:106450002046294601F0C4FC18BB32463B46304674
:10646000394601F0BDFC002844D10022002330460B
:10647000394601F083FCD8B100220023204629468A
:1064800001F07CFC00283DD145EC104B00F010FFE2
:1064900038B1204629460022002301F079FC00286B
:1064A0005CD1B0EE480AF0EE680ABDEC028BF8BD94
:1064B000B0EE480AF0EE680A00F0FAFE58B351EC6C
:1064C000180B0022002301F059FC0028E9D047EC0A
:1064D000106B00F0EDFE0028E3D045EC104B00F00F
:1064E000E7FE0028DDD0FEF7F5FD22239FED2E8B81
:1064F0000360D6E7204629460022002301F03EFC37
:106500000028CED09FED2A8BB0EE480AF0EE680A44
:10651000BDEC028BF8BD47EC106B00F0C9FE002803
:10652000CDD045EC104B00F0C3FE0028C7D053EC93
:10653000182B18EE100A194601F052FC20BBFEF78A
:10654000C9FD034622221A60304639460022002344
:1065500001F01EFC48B99FED188BA2E7FEF7BAFDCB
:1065600021239FED178B03609BE745EC104B00F058
:10657000B3FE224651EC100B2B4601F0FFFB002826
:10658000E9D19FED0F8B8CE7FEF7A4FD00220023DD
:10659000212101601046194601F0B2FA41EC180BB6
:1065A0007FE700BFAFF300800000000000000000A4
:1065B000000000000000F03F000000000000F07F3D
:1065C000000000000000F0FFD0E503200000000004
:1065D0002DE9F04F57EC116B2DED0C8B27F0004A95
:1065E0005AEA060287B03DD055EC104B724925F0AF
:1065F0000048884510EE102AA9462CDC11EE103A0E
:10660000BB4636D08A4526DC6B498A4521D0B9F194
:10661000000F39DB00210091002B51D1664B9A45C8
:1066200000F0A280654B9A4500F0B080BBF1804F2E
:1066300000F0C084624B9B4542D1B9F1000F3FDBB3
:1066400045EC104B07B0BDEC0C8BBDE8F04F00F0F3
:1066500059BD002BDBD008F1404808F5801858EAF6
:10666000020309D19FED500B07B0BDEC0C8BBDE8C8
:10667000F08F0CB9C245C7DD524807B0BDEC0C8B9A
:10668000BDE8F04F00F020BE4F498A4500F38580F9
:10669000A1F154718A450FDD4FEA2A51A1F2FF3171
:1066A000142940F39B84C1F1340123FA01F000FA6C
:1066B00001F1994200F0ED8400210091002BB1D04E
:1066C00045EC104B029200F0E9FD029A5ABBB8F17A
:1066D000000F04D0394B29F040429A4223D1BBF13C
:1066E000000F07DA53EC102B3449002001F008FAB0
:1066F00041EC100BB9F1000FB6DA009B08F14048ED
:1067000008F5801858EA030340F08D8453EC102BF1
:106710001046194600F012FF02460B4601F0F0F950
:1067200041EC100BA0E7009A4FEAD973013B0493A8
:10673000134335D0254B9A454CDD03F104739A453C
:10674000234B40F3DB83984540F36083BBF1000F9C
:1067500040F3608316A3D3E900231046194601F0E5
:10676000A5F841EC100B7FE708F1404303F58013D7
:1067700013433FF477AF164B984540F37A83BBF150
:10678000000FC0F2478347EC106B6DE7BBF1000FC1
:10679000C0F21A8445EC104B66E7022100913BE7FA
:1067A00022462B46B4E700BF000000000000F03F87
:1067B0009C7500883CE4377E0000F07F0000F03FCD
:1067C0000000E03F08840B00FFFF3F430000E04172
:1067D000FFFFEF3FE44B09EA0303002253B951ECFA
:1067E000100BE24B01F062F841EC100B10EE908AB6
:1067F0006FF034024FEA2853A3F2FF339A18DC4BB0
:106800000592C8F3130848F07F54984544F44014A7
:1068100007DDD84B984540F3148401320592A4F566
:1068200080149FEDB96B9FEDBA7B53EC162BB0EE45
:1068300047CAF0EE67CA0025B0EE47DAF0EE67DA35
:106840005BEC10ABA3465046594643EC1A2B00F0C4
:1068500075FE53EC1A2B804689465046594600F087
:106860006FFE02460B460020C34901F049F941EC96
:106870001B0B404653EC1B2B494601F017F841EC2B
:10688000180B0A460146CDE902120021029164105C
:106890004BEC19AB44F00054DDE902AB04F50023E6
:1068A0000020591904460D4602460B4650465946EB
:1068B00000F0FCFF02460B464046494600F03EFE13
:1068C00053EC1A2B804689462046294600F036FEB6
:1068D00002460B4651EC190B00F030FE52465B4667
:1068E00000F0E4FF02460B464046494600F026FE13
:1068F00053EC1B2B00F0DAFF53EC182B41EC190B77
:1069000051EC180B00F0D2FF83A3D3E90023044617
:106910000D4600F0CBFF82A3D3E9002300F010FE68
:1069200022462B4600F0C2FF7FA3D3E9002300F0EC
:1069300007FE22462B4600F0B9FF7DA3D3E90023D2
:1069400000F0FEFD22462B4600F0B0FF7AA3D3E90B
:10695000002300F0F5FD22462B4600F0A7FF78A3A8
:10696000D3E9002300F0ECFD2246804689462B4601
:106970002046294600F09AFF02460B46404649460B
:1069800000F094FF524604460D465B4651EC180B4E
:1069900000F0D6FD53EC192B00F088FF22462B4661
:1069A00000F0CEFD5246804689465B465046594629
:1069B00000F07CFF02460B4643EC1A2B6F4B002283
:1069C00000F0BEFD42464B4600F0BAFD00240D46E5
:1069D00022462B465046594600F068FF674B8246D8
:1069E0008B4600222046294600F0A8FD53EC1A2BC6
:1069F00000F0A4FD02460B464046494600F09EFDCD
:106A000053EC182B00F052FF22462B4604460D464D
:106A100051EC190B00F04AFF02460B46204629466E
:106A200000F08EFD8046894642464B465046594608
:106A300000F086FD44A3D3E90023002004460D4660
:106A400000F034FF524641EC190B5B4620462946C4
:106A500000F074FD02460B464046494600F06EFDCC
:106A60003BA3D3E9002300F021FF02460B4620465A
:106A7000294614461D4638A3D3E9002300F016FF2B
:106A800002460B462046294600F05AFD53EC1D2BCA
:106A900000F056FD80460598894600F09DFE42466E
:106AA00082468B464B4651EC190B00F049FD53ECE6
:106AB0001C2B00F045FD52465B4600F041FD52465E
:106AC0005B46002004460D4600F038FD53EC1C2BBD
:106AD00000F034FD53EC192B00F030FD02460B465C
:106AE0004046494600F02AFD009B049A013B1343AF
:106AF00082468B4640F0B6819FED197BB0EE478A07
:106B0000F0EE678A3CE000BF000000000000F03FAC
:106B10000000000000000000EF4E454A287ECA3FFA
:106B200065DBC9934A86CD3F01411DA96074D13F01
:106B30004D268F515555D53FFFAB6FDBB66DDB3F13
:106B4000033333333333E33F000000E009C7EE3F44
:106B5000FD033ADC09C7EE3FF5015B14E02F3EBEB2
:106B6000000000000000F0BF0000F07F0000404384
:106B70008E98030079B60B000000F03F000008403B
:106B80000023CDE900670093DDE9008930464246E5
:106B90004B46394600F0D2FC22462B4600F086FEDA
:106BA00032463B4606460F465046594600F07EFEAA
:106BB00002460B463046394600F0C2FC42464B4680
:106BC00006460F462046294600F070FE04460D4654
:106BD0002B4630463946224600F0B2FCC24B994261
:106BE000804689468A4640F3188101F13F4303F508
:106BF000E003034340F00782A3A3D3E90023304618
:106C0000394600F09DFC02460B46404649469046F8
:106C1000994622462B4600F091FC02460B46404620
:106C2000494601F0D3F8002840F0ED81CAF30A5339
:106C30004FF48012A3F2FE3342FA03F35344AB49FC
:106C4000C3F30A52A2F2FF3241FA02FCC3F313016A
:106C500041F48011C2F1140241FA02F2002023EA49
:106C60000C01BAF1000F00920B46024602DA0099BD
:106C7000494200912046294600F060FC009B1B051C
:106C8000029302460B4604460D463046394600F054
:106C900057FC89464FF000087DA3D3E90023404606
:106CA000494600F003FE22462B4682468B4640466C
:106CB000494600F043FC02460B463046394600F098
:106CC0003DFC75A3D3E9002300F0F0FD74A3D3E9E4
:106CD000002304460D464046494600F0E7FD0246C3
:106CE0000B462046294600F02BFC06460F4632464E
:106CF0003B465046594600F023FC52465B4604464C
:106D00000D4600F01BFC02460B463046394600F0AB
:106D100015FC2246804689462B462046294600F02F
:106D2000C5FD61A3D3E9002306460F4600F0BEFD72
:106D30005FA3D3E9002300F001FC32463B4600F09C
:106D4000B5FD5DA3D3E9002300F0FAFB32463B46D4
:106D500000F0ACFD5AA3D3E9002300F0EFFB32466C
:106D60003B4600F0A3FD58A3D3E9002300F0E8FB65
:106D700032463B4600F09AFD02460B462046294625
:106D800000F0DCFB06460F4632463B4620462946CD
:106D900000F08CFD02460B463046394616461F462B
:106DA00000224FF0804300F0C9FB02460B463046FC
:106DB000394600F0A5FE424606460F464B462046A1
:106DC000294600F073FD42464B4600F0B9FB0246EF
:106DD0000B463046394600F0B1FB22462B4600F008
:106DE000ADFB02460B460020414900F0A7FB029A8A
:106DF0000B461344B3F5801FC0F24381194653EC90
:106E0000182B00F053FD41EC100B2DE4BBF1000FEB
:106E1000FFF6A0AC9FED2E0B26E4DFF8DCC021F0DE
:106E20000043634540F3E780324B0B4403430AD1F0
:106E300022462B4600F082FB32463B4600F0BCFF68
:106E400000283FF4F3AE24A3D3E9002351EC180B40
:106E500000F02CFD20A3D3E9002300F027FD41EC36
:106E6000100B01E49FED1E7BB0EE478AF0EE678ABF
:106E700086E6BBF1000FCDDA07F1004300EE106AA1
:106E800000EE903AFFF7F0BBFE822B654715973C6A
:106E900000000000432EE63FEF39FAFE422EE63FA7
:106EA000396CA80C615C20BED0A4BE726937663E06
:106EB000F16BD2C541BDBB3E2CDE25AF6A56113FFA
:106EC00093BDBE166CC1663F3E5555555555C53FE1
:106ED000000000000000000059F3F8C21F6EA50179
:106EE000000000000000F03FFFFF8F40FFFF0F0099
:106EF0000000F03F00346F3FFFCB9040984585DBAA
:106F00007D4B98453FF722AC51EC100B7A4B002299
:106F100000F014FB68A3D3E9002304460D4600F0FB
:106F2000C5FC67A3D3E9002382468B462046294649
:106F300000F0BCFC714B41EC180B002220462946A6
:106F400000F0B4FC02460B465FA1D1E9000100F05D
:106F5000F5FA22462B4600F0A9FC02460B4600201B
:106F6000674900F0EBFA2246804689462B462046C8
:106F7000294600F09BFC02460B464046494600F07D
:106F800095FC53A3D3E9002300F090FC02460B4686
:106F900051EC180B00F0D2FA8046894642464B4627
:106FA0005046594600F0CCFA002052465B46044653
:106FB0000D4691E522462B462046294600F076FCF8
:106FC00041EC100BFFF750BB4B49002022462B46EB
:106FD00000F096FD41EC100BFFF746BB002B44D1AF
:106FE000C1F114014AFA01F000FA01F151455AD0F9
:106FF0000093FFF717BB424A93425BDCDDE90012C6
:107000000291009146E634A3D3E9002351EC180B1A
:1070100000F04CFC30A3D3E9002300F047FC41EC26
:10702000100BFFF721BB009B012B7FF41DAB10EE73
:10703000901A10EE102A01F1004343EC102BFFF7D9
:1070400013BB9FED277BB0EE47CAF0EE67CA9FEDFA
:10705000267BB0EE47DAF0EE67DA9FED257B4FF442
:10706000802553EC172BFFF7EBBB45EC104B009240
:1070700000F014F9009A002A7FF492AB0092FFF717
:1070800026BB41EC100B009800F0C2F951EC100B3C
:10709000B5E600F00100C0F102010091002B3FF4C1
:1070A000C1AAFFF70DBB00F00100C0F1020300937D
:1070B000FFF7B8BA1B15BBE5000000604715F73FA6
:1070C00044DF5DF80BAE543E555555555555D53FEB
:1070D000FE822B654715F73F9C7500883CE4377EA0
:1070E0000000004003B8E23F06D0CF43EBFD4C3E2A
:1070F000000000000000F83F0000F03F0000D03F1B
:107100000000E03F2DE9F041634A55EC104BAA43E3
:1071100000F09F80002D10EE10CA2B4654DD29157B
:1071200063D0C3F31303A1F2FF37C90743F48013FD
:1071300004D45B0003EBDC734FEA4C0C4FEADC72C7
:10714000002602EB43037F104FEA4C0C4FF0160E63
:1071500034464FF40012A118994202DC5B1A8C18D5
:1071600016445B00BEF1010E03EBDC734FEA5202E2
:107170004FEA4C0CEFD1754620204FF000420AE058
:1071800044D04FEADC71013801EB43034FEA4C0C69
:107190004FEA520243D0A34202EB0E01F0DD002978
:1071A00001EB020E0ADBA0461B1B614588BF03F101
:1071B000FF33ACEB010C15444446E2E7BEF1000F8F
:1071C000F1DB04F10108EFE725F00042224338D05B
:1071D000002D4ED129464FEADC22153913464FEADD
:1071E0004C5C002AF7D0D60250D400205B00DD02B0
:1071F000044600F10100F9D51A4663460CFA00FC7A
:10720000C0F12000C340091B13438AE76145B8D889
:10721000002901EB020ED1DB98460023C9E753EAAF
:107220000C0310D168087110F30701F17F5101F5CB
:10723000001148BF40F0004001EB0753024643EC09
:10724000102BBDE8F0816A1C16BF681C013640088F
:10725000E9E710EE102A10EE100A2B46294600F03E
:1072600025FB22462B4600F06BF941EC100BBDE8E4
:10727000F08110EE102A2046294600F05FF9024600
:107280000B4600F03DFC41EC100BDAE76346202092
:107290004FF0FF34B6E700BF0000F07F51EC100B59
:1072A00010EE102A21F0004343EC102B704700BF72
:1072B00082B08DED000B019840F0004000F5801089
:1072C000C00F02B0704700BF9FED010B704700BFB9
:1072D000000000000000F87FF0B553EC102BC3F362
:1072E0000A5CACF2FF31132910EE100A83B01C4681
:1072F0004FEAD37E3ADC002930DB424D45FA01FCEF
:1073000003EA0C0515432DD003EA5C0318434FEA4A
:107310005C0C0CD024EA0C0C4FF48024132944FAA2
:1073200001F10CBF4FF0004000204CEA0104364947
:1073300001EBCE0E2346DEE90045024629462046F3
:1073400000F0FEF8CDE90001DDE9000122462B4600
:1073500000F0F4F841EC100B03B0F0BD23F0004155
:10736000114324D143EC102B03B0F0BD332908DDC9
:10737000B1F5806FF6D1194600F0E2F841EC100B40
:10738000F2E7ACF2134C4FF0FF3121FA0CF10A4254
:10739000E8D010EA51024FEA5103C8D020EA0303B3
:1073A0004FF0804040FA0CFC43EA0C00BFE7C3F307
:1073B00013031843144A4342034302EBCE0E1B0B44
:1073C000620C03F40023520443EA02073B46DEE961
:1073D000006710EE102A3046394600F0B1F8CDE9CA
:1073E000000132463B46DDE9000100F0A7F804F059
:1073F000004421F00041024641EA040343EC102B13
:1074000003B0F0BDFFFF0F0010840B000000000070
:1074100038B553EC102BC3F30A5104469C4689BB84
:1074200010EE101A23F0004C5CEA010129D0194635
:1074300000223D4B3D4D10EE100A00F037FAAC42F1
:1074400002460B4616DB8C46C1F30A5136392144FD
:1074500040F2FE70814221DC002947DC11F1350F3A
:1074600034DA4CF250318C4218DC002B26A1D1E9E1
:10747000000144DB24A3D3E9002300F017FA41EC18
:10748000100B38BD40F2FF708142E0D110EE100ABF
:10749000194600F055F841EC100B38BD002B1CA12B
:1074A000D1E9000107DB1AA3D3E9002300F0FEF9BC
:1074B00041EC100B38BD18A1D1E9000114A3D3E9A8
:1074C000002300F0F3F941EC100BF3E72CF0FF4C34
:1074D0002CF4E00C36314CEA0153104619460022D8
:1074E000134B00F0E3F941EC100B38BD2CF0FF4CCE
:1074F0002CF4E00C4CEA015343EC102B38BD08A1EE
:10750000D1E90001B6E700BF59F3F8C21F6EA5012B
:107510009C7500883CE4377E9C7500883CE437FE0F
:1075200059F3F8C21F6EA58100005043B03CFFFF25
:107530000000903C81F0004102E000BF83F0004376
:1075400030B54FEA41044FEA430594EA050F08BFFE
:1075500090EA020F1FBF54EA000C55EA020C7FEAC2
:10756000645C7FEA655C00F0E2804FEA5454D4EB3F
:107570005555B8BF6D420CDD2C4480EA020281EA09
:10758000030382EA000083EA010180EA020281EA41
:107590000303362D88BF30BD11F0004F4FEA013193
:1075A0004FF4801C4CEA113102D0404261EB4101A2
:1075B00013F0004F4FEA03334CEA133302D0524228
:1075C00063EB430394EA050F00F0A780A4F10104E4
:1075D000D5F1200E0DDB02FA0EFC22FA05F280181E
:1075E00041F1000103FA0EF2801843FA05F3594104
:1075F0000EE0A5F120050EF1200E012A03FA0EFC83
:1076000028BF4CF0020C43FA05F3C01851EBE371AC
:1076100001F0004507D54FF0000EDCF1000C7EEBC9
:1076200000006EEB0101B1F5801F1BD3B1F5001F07
:107630000CD349085FEA30004FEA3C0C04F1010426
:107640004FEA445212F5800F80F09A80BCF1004F4F
:1076500008BF5FEA500C50F1000041EB045141EAD1
:10766000050130BD5FEA4C0C404141EB0101013C9A
:1076700028BFB1F5801FE9D291F0000F04BF014689
:107680000020B1FA81F308BF2033A3F10B03B3F15B
:1076900020020CDA0C3208DD02F1140CC2F10C02EB
:1076A00001FA0CF021FA02F10CE002F11402D8BF49
:1076B000C2F1200C01FA02F120FA0CFCDCBF41EA15
:1076C0000C019040E41AA2BF01EB0451294330BDE4
:1076D0006FEA04041F3C1CDA0C340EDC04F11404C1
:1076E000C4F1200220FA04F001FA02F340EA030098
:1076F00021FA04F345EA030130BDC4F10C04C4F1DE
:10770000200220FA02F001FA04F340EA03002946BD
:1077100030BD21FA04F0294630BD94F0000F83F407
:10772000801306BF81F480110134013D4EE77FEAEA
:10773000645C18BF7FEA655C29D094EA050F08BF36
:1077400090EA020F05D054EA000C04BF1946104617
:1077500030BD91EA030F1EBF0021002030BD5FEA5B
:10776000545C05D14000494128BF41F0004130BD83
:1077700014F580043CBF01F5801130BD01F00045D7
:1077800045F0FE4141F470014FF0000030BD7FEA4A
:10779000645C1ABF194610467FEA655C1CBF0B4645
:1077A000024650EA013406BF52EA033591EA030F5C
:1077B00041F4002130BD00BF90F0000F04BF002154
:1077C000704730B54FF4806404F132044FF0000587
:1077D0004FF0000150E700BF90F0000F04BF002100
:1077E000704730B54FF4806404F1320410F0004566
:1077F00048BF40424FF000013EE700BF42004FEA61
:10780000E2014FEA31014FEA02701FBF12F07F43DD
:1078100093F07F4F81F06051704732F07F4208BF94
:10782000704793F07F4F04BF41F40021704730B59B
:107830004FF4607401F0004521F000411CE700BFE7
:1078400050EA010208BF704730B54FF000050AE06A
:1078500050EA010208BF704730B511F0004502D56B
:10786000404261EB41014FF4806404F132045FEA6D
:10787000915C3FF4D8AE4FF003025FEADC0C18BF16
:1078800003325FEADC0C18BF033202EBDC02C2F108
:10789000200300FA03FC20FA02F001FA03FE40EA9A
:1078A0000E0021FA02F11444BDE600BF70B54FF09E
:1078B000FF0C4CF4E06C1CEA11541DBF1CEA13557C
:1078C00094EA0C0F95EA0C0F00F0DEF82C4481EAE4
:1078D000030621EA4C5123EA4C5350EA013518BF04
:1078E00052EA033541F4801143F4801338D0A0FBF1
:1078F00002CE4FF00005E1FB02E506F00042E0FB9E
:1079000003E54FF00006E1FB03569CF0000F18BFA3
:107910004EF0010EA4F1FF04B6F5007F64F540744B
:1079200004D25FEA4E0E6D4146EB060642EAC621DE
:1079300041EA55514FEAC52040EA5E504FEACE2E4B
:10794000B4F1FD0C88BFBCF5E06F1ED8BEF1004F4E
:1079500008BF5FEA500E50F1000041EB045170BDCA
:1079600006F0004646EA010140EA020081EA03010E
:10797000B4EB5C04C2BFD4EB0C0541EA045170BD0A
:1079800041F480114FF0000E013C00F3AB8014F184
:10799000360FDEBF002001F0004170BDC4F10004CD
:1079A000203C35DA0C341BDC04F11404C4F120054E
:1079B00000FA05F320FA04F001FA05F240EA0200A9
:1079C00001F0004221F0004110EBD37021FA04F6DF
:1079D00042EB06015EEA430E08BF20EAD37070BD99
:1079E000C4F10C04C4F1200500FA04F320FA05F0F8
:1079F00001FA04F240EA020001F0004110EBD370FA
:107A000041F100015EEA430E08BF20EAD37070BD69
:107A1000C4F1200500FA05F24EEA020E20FA04F342
:107A200001FA05F243EA020321FA04F001F00041F1
:107A300021FA04F220EA020000EBD3705EEA430E62
:107A400008BF20EAD37070BD94F0000F0FD101F091
:107A50000046400041EB010111F4801F08BF013CCA
:107A6000F7D041EA060195F0000F18BF704703F008
:107A70000046520043EB030313F4801F08BF013D8F
:107A8000F7D043EA0603704794EA0C0F0CEA13554B
:107A900018BF95EA0C0F0CD050EA410618BF52EA05
:107AA0004306D1D181EA030101F000414FF000000B
:107AB00070BD50EA410606BF1046194652EA430619
:107AC00019D094EA0C0F02D150EA013613D195EA8D
:107AD0000C0F05D152EA03361CBF104619460AD1D5
:107AE00081EA030101F0004141F0FE4141F47001DF
:107AF0004FF0000070BD41F0FE4141F4780170BDCF
:107B000070B54FF0FF0C4CF4E06C1CEA11541DBF33
:107B10001CEA135594EA0C0F95EA0C0F00F0A7F835
:107B2000A4EB050481EA030E52EA03354FEA013162
:107B300000F088804FEA03334FF0805545EA131375
:107B400043EA12634FEA022245EA111545EA10653D
:107B50004FEA00260EF000419D4208BF964244F1D4
:107B6000FD0404F5407402D25B084FEA3202B61AF3
:107B700065EB03055B084FEA32024FF480104FF4C7
:107B8000002CB6EB020E75EB030E22BFB61A75463B
:107B900040EA0C005B084FEA3202B6EB020E75EBCE
:107BA000030E22BFB61A754640EA5C005B084FEA36
:107BB0003202B6EB020E75EB030E22BFB61A754603
:107BC00040EA9C005B084FEA3202B6EB020E75EB0E
:107BD000030E22BFB61A754640EADC0055EA060ECF
:107BE00018D04FEA051545EA16754FEA06164FEA12
:107BF000C30343EA52734FEAC2025FEA1C1CC0D1BE
:107C000011F4801F0BD141EA00014FF000004FF04A
:107C1000004CB6E711F4801F04BF01430020B4F10B
:107C2000FD0C88BFBCF5E06F3FF6AFAEB5EB030CC3
:107C300004BFB6EB020C5FEA500C50F1000041EBC0
:107C4000045170BD0EF0004E4EEA113114EB5C048D
:107C5000C2BFD4EB0C0541EA045170BD41F4801160
:107C60004FF0000E013C90E645EA060E8DE60CEA68
:107C7000135594EA0C0F08BF95EA0C0F3FF43BAF85
:107C800094EA0C0F0AD150EA01347FF434AF95EA3C
:107C90000C0F7FF425AF104619462CE795EA0C0F20
:107CA00006D152EA03353FF4FDAE1046194622E7ED
:107CB00050EA410618BF52EA43067FF4C5AE50EAC7
:107CC00041047FF40DAF52EA43057FF4EBAE12E7B7
:107CD0004FF0FF3C06E000BF4FF0010C02E000BF98
:107CE0004FF0010C4DF804CD4FEA410C7FEA6C5C7B
:107CF0004FEA430C18BF7FEA6C5C1BD001B050EA1E
:107D0000410C0CBF52EA430C91EA030F02BF90EA08
:107D1000020F0020704710F1000F91EA030F58BFC7
:107D2000994208BF90422CBFD8176FEAE37040F029
:107D3000010070474FEA410C7FEA6C5C02D150EAC7
:107D4000013C07D14FEA430C7FEA6C5CD6D152EA82
:107D5000033CD3D05DF8040B704700BF8446104647
:107D600062468C461946634600E000BF01B5FFF746
:107D7000B7FF002848BF10F1000F01BD4DF808ED16
:107D8000FFF7F4FF0CBF012000205DF808FB00BFE7
:107D90004DF808EDFFF7EAFF34BF012000205DF841
:107DA00008FB00BF4DF808EDFFF7E0FF94BF01208E
:107DB00000205DF808FB00BF4DF808EDFFF7CEFF8F
:107DC00094BF012000205DF808FB00BF4DF808EDCE
:107DD000FFF7C4FF34BF012000205DF808FB00BF9F
:107DE0004FEA410C7FEA6C5C02D150EA013C0AD1B7
:107DF0004FEA430C7FEA6C5C02D152EA033C02D1A9
:107E00004FF0000070474FF0010070474A0011D258
:107E100012F5001211D20DD56FF47873B3EB6252E4
:107E20000ED44FEAC12343F0004343EA505323FAF0
:107E300002F070474FF00000704750EA013002D165
:107E40004FF0FF3070474FF0000070474FEA41029B
:107E5000B2F1E04324BFB3F5001CDCF1FE5C0DD9A8
:107E600001F0004C4FEAC0024CEA5070B2F1004FF2
:107E700040EB830008BF20F00100704711F0804FF5
:107E800021D113F13872BCBF01F00040704741F4BA
:107E900080114FEA5252C2F11802C2F1200C10FABE
:107EA0000CF320FA02F018BF40F001004FEAC123A2
:107EB0004FEAD32303FA0CFC40EA0C0023FA02F346
:107EC0004FEA4303CCE77FEA625307D150EA01331C
:107ED0001EBF4FF0FE4040F44000704701F00040EC
:107EE00040F0FE4040F40000704700BF07EE900AEB
:107EF000F5EEC07AF1EE10FA01D400F00BB8F1EE15
:107F0000677A08B517EE900A00F004F8404261EB7A
:107F1000410108BDD0B5FFF771FC0C4B00220646AD
:107F20000F46FFF7C3FCFFF771FF0446FFF744FC61
:107F3000074B0022FFF7BAFC02460B463046394693
:107F4000FFF7FCFAFFF762FF2146D0BD0000F03DCD
:107F50000000F041002301461A46184600F074B8AC
:107F60000A44914200F1FF3300D1704710B511F877
:107F7000014B03F8014F9142F9D110BD0244034671
:107F8000934200D1704703F8011BF9E738B5104B55
:107F90001D68AB6B0446B3B91820FDF76BF80246B9
:107FA000A86320B90B4B0C484221FDF79BF80B4905
:107FB0000B4BC0E900130B4B83600B238381002123
:107FC0000120C2E90401AB6B00221C615A6138BD7B
:107FD000D4E5032020840B0037840B000E33CDAB97
:107FE00034126DE6ECDE050010F8012B11F8013BB0
:107FF000012A28BF9A42F7D0D01A7047024B014697
:10800000186800F003B800BFD4E5032037B5044674
:1080100008460D4600F00FF8421C1146204601921A
:10802000FDF750F8044618B1019A2946FFF798FF6A
:10803000204603B030BD034613F8012B002AFBD1C4
:10804000181A0138704700002DE9F843DFF8B880AE
:108050000646D8F800001F460D46914600F056F837
:10806000254B1C6834B9254C1C60254B13B11B688B
:10807000C4F8883063681F2B07DDD8F8000000F0D3
:1080800047F84FF0FF30BDE8F8834EB3D4F88800CE
:1080900088B91C4B23B9D8F8000000F038F8F0E795
:1080A0004FF48470FCF7E6FF0028F4D00023C0E909
:1080B0004033C4F88800636840F8239001229A4056
:1080C00000EB8301D0F800311343C0F80031022ED9
:1080D000C1F8807002BFD0F804311343C0F80431F6
:1080E0006368D8F800005A1C0233626044F82350D9
:1080F00000F00EF80020C6E7ECE7032060E703205D
:108100000000000075500B0038E6032070477047F0
:108110007047000021400B005D400B0085400B00C4
:1081200089400B00000000004461746100626174CA
:108130007465727900252E3266205600426174748F
:1081400065727920566F6C74616765006D6F697335
:1081500074757265004D3120256425253B204D3214
:1081600020256425253B204D3320256425253B20F3
:108170004D342025642525004D6F69737475726533
:10818000007761746572002564202044383D2564C1
:108190002044373D25642044363D256400576174F2
:1081A0006572204C6576656C0077656174686572F0
:1081B0000054656D7020252E326620432C20416CC2
:1081C0007420252E3266206D2C2050726520252EBD
:1081D00030662050612C2054696D652025643A2555
:1081E0006400576561746865720072657365743404
:1081F0000072657365743300726573657432007262
:108200006573657431005761746572696E672031FA
:108210002D256420322D256420332D256420342D16
:108220002564200053746174757300626174746511
:1082300072793B6D6F6973747572653B77617465B4
:10824000723B776561746865722C737461747573C1
:10825000004C69737420434D443A00000000000054
:10826000000000005D410B00B1410B00B3400B006A
:108270000019004100000064000000000000000040
:1082800073510B0069510B005F510B0055510B00EE
:1082900049510B003D510B00D9600B00E1600B0010
:1082A00031510B0029510B001F510B0015510B00D0
:1082B00011610B006170700025592D256D2D25640D
:1082C0005425483A254D3A2553257A006173637445
:1082D000696D65000000000000000000ED560B0015
:1082E000F3560B0031570B0001570B00EF560B00F4
:1082F0000000000000000000795C0B00695C0B00CE
:108300006B5C0B0000000000000000005F5D0B00D4
:10831000C75D0B009D5D0B0065530B008F5D0B006F
:10832000615D0B00715D0B00C15D0B00815D0B0099
:10833000595D0B000000000000000000615E0B00B2
:10834000CD5E0B00A55E0B0065530B00755E0B0048
:10835000915E0B00835E0B009F5E0B00635E0B0063
:10836000675E0B0000000000000000002D5F0B00A6
:10837000775F0B004F5F0B002F5F0B00575F0B0009
:108380005F5F0B00675F0B006F5F0B00000000007A
:10839000000000007B600B0071600B0067600B0049
:1083A0001D600B005B600B004F600B00D9600B0081
:1083B000E1600B0043600B003B600B0031600B0081
:1083C00027600B0011610B0000000000000000009E
:1083D00099600B00A3600B00AD600B00B7600B0051
:1083E000C1600B00CD600B00D9600B00E1600B0099
:1083F000E9600B00F5600B00FD600B0007610B00EE
:1084000011610B00000000000000000000000000EF
:10841000000000000000304300000000000030C3F6
:108420005245454E54206D616C6C6F6320737563CB
:10843000636565646564002F6D6E742F776F726B72
:1084400073706163652F776F726B73706163652FF3
:108450004743432D31302D706970656C696E652F0F
:108460006A656E6B696E732D4743432D31302D70F5
:108470006970656C696E652D34385F323032303129
:108480003132345F313630363138303634312F7353
:1084900072632F6E65776C69622F6E65776C6962A7
:1084A0002F6C6962632F7374646C69622F72616EE2
:1084B000642E63008D480B007D510B00A5510B000D
:1084C00055530B00F9530B0075550B00A9550B00C4
:1084D00085600B00E9610B00000000000000000057
:1084E000040000001400000003000000474E550087
:1084F000B697E254591574FFC61AB6839BB483A38A
:04850000502333379A
:048504000000000073
:1085080030E5032054E5032078E503209CE50320AB
:1085180013000000DB0D00009505000000000000BE
:108528000000000005000000983A00005500000017
:108538005000000012000000E00B00006104000081
:10854800000000000000000004000000983A00004D
:10855800550000005000000011000000560E0000F9
:1085680025060000000000000000000003000000D5
:108578001027000055000000500000001000000007
:10858800F20B00007704000000000000000000006B
:1085980002000000102700005500000050000000F5
:1085A800CC820B0000000000100E0000000000004C
:1085B800FF000000D8E503200000000000000000D4
:1085C80000000000000000000000000000000000A3
:1085D8000000000000000000000000000000000093
:1085E8000000000000000000000000000000000083
:1085F8000000000000000000000000000000000073
:108608000000000000000000000000000000000062
:0C8618000000000000000000F0E703205C
:10862400FFFFFFFF00000102030405060708090A13
:108634000B0C0D0E0F101112131415161718191A0E
:088644001B1C1D1E1F20280055
:04864C007856341216
:04000003B0004020E9
:00000001FF
